{
  "contractName": "SumToLength",
  "abi": [
    {
      "constant": true,
      "inputs": [],
      "name": "result",
      "outputs": [
        {
          "name": "",
          "type": "uint256"
        }
      ],
      "payable": false,
      "stateMutability": "view",
      "type": "function"
    },
    {
      "constant": false,
      "inputs": [
        {
          "name": "_length",
          "type": "uint256"
        },
        {
          "name": "_nums",
          "type": "uint256[]"
        }
      ],
      "name": "exec",
      "outputs": [],
      "payable": false,
      "stateMutability": "nonpayable",
      "type": "function"
    }
  ],
  "bytecode": "0x6060604052341561000f57600080fd5b6101668061001e6000396000f30060606040526004361061004c576000357c0100000000000000000000000000000000000000000000000000000000900463ffffffff1680636537214714610051578063aa37ee661461007a575b600080fd5b341561005c57600080fd5b6100646100dd565b6040518082815260200191505060405180910390f35b341561008557600080fd5b6100db6004808035906020019091908035906020019082018035906020019080806020026020016040519081016040528093929190818152602001838360200280828437820191505050505050919050506100e3565b005b60005481565b6000828251101515156100f257fe5b60008081905550600090505b8281101561013557818181518110151561011457fe5b906020019060200201516000540160008190555080806001019150506100fe565b5050505600a165627a7a72305820b7169a711b823f1bbd47cef65786b7d05f0eeb839099a953c3fb53360aae05080029",
  "source": "pragma solidity ^0.4.18;\n\ncontract SumToLength {\n  uint256 public result;\n\n  function exec(uint256 _length, uint256[] _nums) public {\n    assert(_nums.length >= _length);\n    result = 0;\n    for(uint i=0; i<_length; i++) {\n      result = result + _nums[i];\n    }\n  }\n}\n",
  "sourcePath": "/Users/nakajo/work/ethereum-test/arrays-contract/contracts/SumToLength.sol",
  "compiler": {
    "name": "solc",
    "version": "0.4.18+commit.9cf6e910.Emscripten.clang"
  },
  "schemaVersion": "1.0.1",
  "updatedAt": "2017-12-31T14:35:01.030Z"
}